{
  "address": "0x1d307178aBA72f25ECAAA577F91CE4BcCB2dcb5a",
  "abi": [
    {
      "inputs": [
        {
          "internalType": "uint256",
          "name": "customerId",
          "type": "uint256"
        }
      ],
      "name": "CustReccomandations",
      "outputs": [
        {
          "internalType": "uint256[8]",
          "name": "fealty",
          "type": "uint256[8]"
        }
      ],
      "stateMutability": "view",
      "type": "function"
    },
    {
      "inputs": [
        {
          "internalType": "string",
          "name": "_name",
          "type": "string"
        },
        {
          "internalType": "uint256",
          "name": "_PhNo",
          "type": "uint256"
        }
      ],
      "name": "addCustomer",
      "outputs": [],
      "stateMutability": "nonpayable",
      "type": "function"
    },
    {
      "inputs": [
        {
          "internalType": "string",
          "name": "_name",
          "type": "string"
        },
        {
          "internalType": "uint256",
          "name": "_price",
          "type": "uint256"
        },
        {
          "internalType": "uint256",
          "name": "_quantity",
          "type": "uint256"
        },
        {
          "internalType": "string",
          "name": "_productType",
          "type": "string"
        }
      ],
      "name": "addProductToInventory",
      "outputs": [
        {
          "internalType": "bool",
          "name": "success",
          "type": "bool"
        }
      ],
      "stateMutability": "nonpayable",
      "type": "function"
    },
    {
      "inputs": [
        {
          "internalType": "uint256",
          "name": "prodId",
          "type": "uint256"
        },
        {
          "internalType": "uint256",
          "name": "count",
          "type": "uint256"
        }
      ],
      "name": "addToCart",
      "outputs": [
        {
          "internalType": "bool",
          "name": "success",
          "type": "bool"
        }
      ],
      "stateMutability": "nonpayable",
      "type": "function"
    },
    {
      "inputs": [
        {
          "internalType": "uint256",
          "name": "customerId",
          "type": "uint256"
        }
      ],
      "name": "billing",
      "outputs": [],
      "stateMutability": "nonpayable",
      "type": "function"
    },
    {
      "inputs": [
        {
          "internalType": "uint256",
          "name": "",
          "type": "uint256"
        }
      ],
      "name": "cart",
      "outputs": [
        {
          "internalType": "uint256",
          "name": "prodId",
          "type": "uint256"
        },
        {
          "internalType": "uint256",
          "name": "count",
          "type": "uint256"
        },
        {
          "internalType": "uint256",
          "name": "price",
          "type": "uint256"
        }
      ],
      "stateMutability": "view",
      "type": "function"
    },
    {
      "inputs": [
        {
          "internalType": "uint256",
          "name": "",
          "type": "uint256"
        }
      ],
      "name": "customers",
      "outputs": [
        {
          "internalType": "uint256",
          "name": "id",
          "type": "uint256"
        },
        {
          "internalType": "string",
          "name": "name",
          "type": "string"
        },
        {
          "internalType": "uint256",
          "name": "PhNo",
          "type": "uint256"
        }
      ],
      "stateMutability": "view",
      "type": "function"
    },
    {
      "inputs": [],
      "name": "getCart",
      "outputs": [
        {
          "components": [
            {
              "internalType": "uint256",
              "name": "prodId",
              "type": "uint256"
            },
            {
              "internalType": "uint256",
              "name": "count",
              "type": "uint256"
            },
            {
              "internalType": "uint256",
              "name": "price",
              "type": "uint256"
            }
          ],
          "internalType": "struct RetailStore.CartItem[]",
          "name": "c",
          "type": "tuple[]"
        }
      ],
      "stateMutability": "view",
      "type": "function"
    },
    {
      "inputs": [],
      "name": "getCustomers",
      "outputs": [
        {
          "components": [
            {
              "internalType": "uint256",
              "name": "id",
              "type": "uint256"
            },
            {
              "internalType": "string",
              "name": "name",
              "type": "string"
            },
            {
              "internalType": "uint256",
              "name": "PhNo",
              "type": "uint256"
            }
          ],
          "internalType": "struct RetailStore.Customer[]",
          "name": "c",
          "type": "tuple[]"
        }
      ],
      "stateMutability": "view",
      "type": "function"
    },
    {
      "inputs": [
        {
          "internalType": "uint256",
          "name": "prodId",
          "type": "uint256"
        }
      ],
      "name": "getProduct",
      "outputs": [
        {
          "internalType": "string",
          "name": "brand",
          "type": "string"
        },
        {
          "internalType": "string",
          "name": "productType",
          "type": "string"
        },
        {
          "internalType": "uint256",
          "name": "qua",
          "type": "uint256"
        },
        {
          "internalType": "uint256",
          "name": "price",
          "type": "uint256"
        }
      ],
      "stateMutability": "view",
      "type": "function"
    },
    {
      "inputs": [],
      "name": "getTotalP",
      "outputs": [
        {
          "internalType": "uint256",
          "name": "",
          "type": "uint256"
        }
      ],
      "stateMutability": "view",
      "type": "function"
    },
    {
      "inputs": [],
      "name": "getVal",
      "outputs": [
        {
          "internalType": "uint256",
          "name": "",
          "type": "uint256"
        }
      ],
      "stateMutability": "view",
      "type": "function"
    },
    {
      "inputs": [
        {
          "internalType": "uint256",
          "name": "",
          "type": "uint256"
        }
      ],
      "name": "quantity",
      "outputs": [
        {
          "internalType": "uint256",
          "name": "",
          "type": "uint256"
        }
      ],
      "stateMutability": "view",
      "type": "function"
    },
    {
      "inputs": [
        {
          "internalType": "uint256",
          "name": "customerId",
          "type": "uint256"
        }
      ],
      "name": "reduceFealty",
      "outputs": [],
      "stateMutability": "nonpayable",
      "type": "function"
    },
    {
      "inputs": [],
      "name": "resetCart",
      "outputs": [],
      "stateMutability": "nonpayable",
      "type": "function"
    },
    {
      "inputs": [
        {
          "internalType": "uint256",
          "name": "x",
          "type": "uint256"
        }
      ],
      "name": "storeVal",
      "outputs": [],
      "stateMutability": "nonpayable",
      "type": "function"
    },
    {
      "inputs": [],
      "name": "totalP",
      "outputs": [
        {
          "internalType": "uint256",
          "name": "",
          "type": "uint256"
        }
      ],
      "stateMutability": "view",
      "type": "function"
    },
    {
      "inputs": [
        {
          "internalType": "uint256",
          "name": "customerId",
          "type": "uint256"
        }
      ],
      "name": "updateFealty",
      "outputs": [],
      "stateMutability": "nonpayable",
      "type": "function"
    },
    {
      "inputs": [],
      "name": "val",
      "outputs": [
        {
          "internalType": "uint256",
          "name": "",
          "type": "uint256"
        }
      ],
      "stateMutability": "view",
      "type": "function"
    }
  ],
  "transactionHash": "0xe89f69121a862459ef6052d03558cd17f7175574e8d8b0d252278b32680cc88c",
  "args": [],
  "numDeployments": 7,
  "solcInputHash": "a8aa6857d8d7092074d188f2897e12f9",
  "bytecode": "0x6080604052600060055534801561001557600080fd5b5061191e806100256000396000f3fe608060405234801561001057600080fd5b50600436106101215760003560e01c806392f7d075116100ad578063d5f27be211610071578063d5f27be21461031f578063e1cb0e521461034f578063f1ba71271461036d578063f45a367b1461038b578063f5f9b465146103a957610121565b806392f7d07514610278578063b9db15b414610282578063c0abda2a146102b5578063c6626615146102e7578063c9cb75601461030357610121565b80633c6bb436116100f45780633c6bb436146101c25780633ddab6a9146101e05780634d14e855146102105780635d893ee11461022c578063641673241461025c57610121565b80631d586f7c1461012657806321627dad1461015857806328791cbf146101765780633ab9bbb614610192575b600080fd5b610140600480360381019061013b9190610f17565b6103c7565b60405161014f93929190610f53565b60405180910390f35b610160610401565b60405161016d919061108a565b60405180910390f35b610190600480360381019061018b9190610f17565b61047e565b005b6101ac60048036038101906101a791906110ac565b61053d565b6040516101b99190611107565b60405180910390f35b6101ca6105d9565b6040516101d79190611122565b60405180910390f35b6101fa60048036038101906101f59190610f17565b6105df565b6040516102079190611122565b60405180910390f35b61022a60048036038101906102259190610f17565b610603565b005b61024660048036038101906102419190611283565b6106a7565b6040516102539190611107565b60405180910390f35b61027660048036038101906102719190610f17565b61078a565b005b6102806108b3565b005b61029c60048036038101906102979190610f17565b610974565b6040516102ac94939291906113aa565b60405180910390f35b6102cf60048036038101906102ca9190610f17565b610b30565b6040516102de939291906113fd565b60405180910390f35b61030160048036038101906102fc9190610f17565b610bf2565b005b61031d6004803603810190610318919061143b565b610bfc565b005b61033960048036038101906103349190610f17565b610c8a565b6040516103469190611533565b60405180910390f35b610357610ce8565b6040516103649190611122565b60405180910390f35b610375610cf2565b60405161038291906116ab565b60405180910390f35b610393610df7565b6040516103a09190611122565b60405180910390f35b6103b1610dfd565b6040516103be9190611122565b60405180910390f35b600281815481106103d757600080fd5b90600052602060002090600302016000915090508060000154908060010154908060020154905083565b60606002805480602002602001604051908101604052809291908181526020016000905b828210156104755783829060005260206000209060030201604051806060016040529081600082015481526020016001820154815260200160028201548152505081526020019060010190610425565b50505050905090565b60005b600280549050811015610539576000600282815481106104a4576104a36116cd565b5b906000526020600020906003020160000154905060028083815481106104cd576104cc6116cd565b5b9060005260206000209060030201600101546104e9919061172b565b60036000858152602001908152602001600020826008811061050e5761050d6116cd565b5b01600082825461051e919061172b565b9250508190555050808061053190611781565b915050610481565b5050565b60008060008481548110610554576105536116cd565b5b9060005260206000209060040201600301549050600260405180606001604052808681526020018581526020018381525090806001815401808255809150506001900390600052602060002090600302016000909190919091506000820151816000015560208201518160010155604082015181600201555050600191505092915050565b60065481565b600181815481106105ef57600080fd5b906000526020600020016000915090505481565b60005b600360008381526020019081526020016000205060088110156106a357600160036000848152602001908152602001600020826008811061064a576106496116cd565b5b015410610690576001600360008481526020019081526020016000208260088110610678576106776116cd565b5b01600082825461068891906117ca565b925050819055505b808061069b90611781565b915050610606565b5050565b60008060008054905090506000604051806080016040528083815260200188815260200185815260200187815250905060018590806001815401808255809150506001900390600052602060002001600090919091909150556000819080600181540180825580915050600190039060005260206000209060040201600090919091909150600082015181600001556020820151816001019080519060200190610752929190610e07565b50604082015181600201908051906020019061076f929190610e07565b50606082015181600301555050600192505050949350505050565b6000805b600280549050811015610896576000600282815481106107b1576107b06116cd565b5b9060005260206000209060030201600001549050600081815481106107d9576107d86116cd565b5b906000526020600020906004020160030154600283815481106107ff576107fe6116cd565b5b90600052602060002090600302016001015461081b91906117fe565b83610826919061172b565b92506002828154811061083c5761083b6116cd565b5b90600052602060002090600302016001015460018281548110610862576108616116cd565b5b90600052602060002001600082825461087b91906117ca565b9250508190555050808061088e90611781565b91505061078e565b506108a082610603565b6108a86108b3565b806005819055505050565b60005b6002805490508110156109195760028054806108d5576108d4611858565b5b60019003818190600052602060002090600302016000808201600090556001820160009055600282016000905550509055808061091190611781565b9150506108b6565b5060006002805490509050600181141561097157600280548061093f5761093e611858565b5b600190038181906000526020600020906003020160008082016000905560018201600090556002820160009055505090555b50565b6060806000806000858154811061098e5761098d6116cd565b5b9060005260206000209060040201600101600086815481106109b3576109b26116cd565b5b9060005260206000209060040201600201600187815481106109d8576109d76116cd565b5b9060005260206000200154600088815481106109f7576109f66116cd565b5b906000526020600020906004020160030154838054610a15906118b6565b80601f0160208091040260200160405190810160405280929190818152602001828054610a41906118b6565b8015610a8e5780601f10610a6357610100808354040283529160200191610a8e565b820191906000526020600020905b815481529060010190602001808311610a7157829003601f168201915b50505050509350828054610aa1906118b6565b80601f0160208091040260200160405190810160405280929190818152602001828054610acd906118b6565b8015610b1a5780601f10610aef57610100808354040283529160200191610b1a565b820191906000526020600020905b815481529060010190602001808311610afd57829003601f168201915b5050505050925093509350935093509193509193565b60048181548110610b4057600080fd5b9060005260206000209060030201600091509050806000015490806001018054610b69906118b6565b80601f0160208091040260200160405190810160405280929190818152602001828054610b95906118b6565b8015610be25780601f10610bb757610100808354040283529160200191610be2565b820191906000526020600020905b815481529060010190602001808311610bc557829003601f168201915b5050505050908060020154905083565b8060068190555050565b60006004805490509050600060405180606001604052808381526020018581526020018481525090506004819080600181540180825580915050600190039060005260206000209060030201600090919091909150600082015181600001556020820151816001019080519060200190610c77929190610e07565b5060408201518160020155505050505050565b610c92610e8d565b60036000838152602001908152602001600020600880602002604051908101604052809291908260088015610cdc576020028201915b815481526020019060010190808311610cc8575b50505050509050919050565b6000600654905090565b60606004805480602002602001604051908101604052809291908181526020016000905b82821015610dee578382906000526020600020906003020160405180606001604052908160008201548152602001600182018054610d53906118b6565b80601f0160208091040260200160405190810160405280929190818152602001828054610d7f906118b6565b8015610dcc5780601f10610da157610100808354040283529160200191610dcc565b820191906000526020600020905b815481529060010190602001808311610daf57829003601f168201915b5050505050815260200160028201548152505081526020019060010190610d16565b50505050905090565b60055481565b6000600554905090565b828054610e13906118b6565b90600052602060002090601f016020900481019282610e355760008555610e7c565b82601f10610e4e57805160ff1916838001178555610e7c565b82800160010185558215610e7c579182015b82811115610e7b578251825591602001919060010190610e60565b5b509050610e899190610eb0565b5090565b604051806101000160405280600890602082028036833780820191505090505090565b5b80821115610ec9576000816000905550600101610eb1565b5090565b6000604051905090565b600080fd5b600080fd5b6000819050919050565b610ef481610ee1565b8114610eff57600080fd5b50565b600081359050610f1181610eeb565b92915050565b600060208284031215610f2d57610f2c610ed7565b5b6000610f3b84828501610f02565b91505092915050565b610f4d81610ee1565b82525050565b6000606082019050610f686000830186610f44565b610f756020830185610f44565b610f826040830184610f44565b949350505050565b600081519050919050565b600082825260208201905092915050565b6000819050602082019050919050565b610fbf81610ee1565b82525050565b606082016000820151610fdb6000850182610fb6565b506020820151610fee6020850182610fb6565b5060408201516110016040850182610fb6565b50505050565b60006110138383610fc5565b60608301905092915050565b6000602082019050919050565b600061103782610f8a565b6110418185610f95565b935061104c83610fa6565b8060005b8381101561107d5781516110648882611007565b975061106f8361101f565b925050600181019050611050565b5085935050505092915050565b600060208201905081810360008301526110a4818461102c565b905092915050565b600080604083850312156110c3576110c2610ed7565b5b60006110d185828601610f02565b92505060206110e285828601610f02565b9150509250929050565b60008115159050919050565b611101816110ec565b82525050565b600060208201905061111c60008301846110f8565b92915050565b60006020820190506111376000830184610f44565b92915050565b600080fd5b600080fd5b6000601f19601f8301169050919050565b7f4e487b7100000000000000000000000000000000000000000000000000000000600052604160045260246000fd5b61119082611147565b810181811067ffffffffffffffff821117156111af576111ae611158565b5b80604052505050565b60006111c2610ecd565b90506111ce8282611187565b919050565b600067ffffffffffffffff8211156111ee576111ed611158565b5b6111f782611147565b9050602081019050919050565b82818337600083830152505050565b6000611226611221846111d3565b6111b8565b90508281526020810184848401111561124257611241611142565b5b61124d848285611204565b509392505050565b600082601f83011261126a5761126961113d565b5b813561127a848260208601611213565b91505092915050565b6000806000806080858703121561129d5761129c610ed7565b5b600085013567ffffffffffffffff8111156112bb576112ba610edc565b5b6112c787828801611255565b94505060206112d887828801610f02565b93505060406112e987828801610f02565b925050606085013567ffffffffffffffff81111561130a57611309610edc565b5b61131687828801611255565b91505092959194509250565b600081519050919050565b600082825260208201905092915050565b60005b8381101561135c578082015181840152602081019050611341565b8381111561136b576000848401525b50505050565b600061137c82611322565b611386818561132d565b935061139681856020860161133e565b61139f81611147565b840191505092915050565b600060808201905081810360008301526113c48187611371565b905081810360208301526113d88186611371565b90506113e76040830185610f44565b6113f46060830184610f44565b95945050505050565b60006060820190506114126000830186610f44565b81810360208301526114248185611371565b90506114336040830184610f44565b949350505050565b6000806040838503121561145257611451610ed7565b5b600083013567ffffffffffffffff8111156114705761146f610edc565b5b61147c85828601611255565b925050602061148d85828601610f02565b9150509250929050565b600060089050919050565b600081905092915050565b6000819050919050565b60006114c38383610fb6565b60208301905092915050565b6000602082019050919050565b6114e581611497565b6114ef81846114a2565b92506114fa826114ad565b8060005b8381101561152b57815161151287826114b7565b965061151d836114cf565b9250506001810190506114fe565b505050505050565b60006101008201905061154960008301846114dc565b92915050565b600081519050919050565b600082825260208201905092915050565b6000819050602082019050919050565b600082825260208201905092915050565b600061159782611322565b6115a1818561157b565b93506115b181856020860161133e565b6115ba81611147565b840191505092915050565b60006060830160008301516115dd6000860182610fb6565b50602083015184820360208601526115f5828261158c565b915050604083015161160a6040860182610fb6565b508091505092915050565b600061162183836115c5565b905092915050565b6000602082019050919050565b60006116418261154f565b61164b818561155a565b93508360208202850161165d8561156b565b8060005b85811015611699578484038952815161167a8582611615565b945061168583611629565b925060208a01995050600181019050611661565b50829750879550505050505092915050565b600060208201905081810360008301526116c58184611636565b905092915050565b7f4e487b7100000000000000000000000000000000000000000000000000000000600052603260045260246000fd5b7f4e487b7100000000000000000000000000000000000000000000000000000000600052601160045260246000fd5b600061173682610ee1565b915061174183610ee1565b9250827fffffffffffffffffffffffffffffffffffffffffffffffffffffffffffffffff03821115611776576117756116fc565b5b828201905092915050565b600061178c82610ee1565b91507fffffffffffffffffffffffffffffffffffffffffffffffffffffffffffffffff8214156117bf576117be6116fc565b5b600182019050919050565b60006117d582610ee1565b91506117e083610ee1565b9250828210156117f3576117f26116fc565b5b828203905092915050565b600061180982610ee1565b915061181483610ee1565b9250817fffffffffffffffffffffffffffffffffffffffffffffffffffffffffffffffff048311821515161561184d5761184c6116fc565b5b828202905092915050565b7f4e487b7100000000000000000000000000000000000000000000000000000000600052603160045260246000fd5b7f4e487b7100000000000000000000000000000000000000000000000000000000600052602260045260246000fd5b600060028204905060018216806118ce57607f821691505b602082108114156118e2576118e1611887565b5b5091905056fea26469706673582212207075b7aa21ba1007be7d5be0138e955ea4a2acd417e8db653cbd68a4a3220a0e64736f6c63430008090033",
  "devdoc": {
    "kind": "dev",
    "methods": {},
    "version": 1
  },
  "userdoc": {
    "kind": "user",
    "methods": {},
    "version": 1
  },
  "storageLayout": {
    "storage": [
      {
        "astId": 15,
        "contract": "contracts/RetailStore.sol:RetailStore",
        "label": "Inventory",
        "offset": 0,
        "slot": "0",
        "type": "t_array(t_struct(Product)11_storage)dyn_storage"
      },
      {
        "astId": 18,
        "contract": "contracts/RetailStore.sol:RetailStore",
        "label": "quantity",
        "offset": 0,
        "slot": "1",
        "type": "t_array(t_uint256)dyn_storage"
      },
      {
        "astId": 36,
        "contract": "contracts/RetailStore.sol:RetailStore",
        "label": "cart",
        "offset": 0,
        "slot": "2",
        "type": "t_array(t_struct(CartItem)25_storage)dyn_storage"
      },
      {
        "astId": 42,
        "contract": "contracts/RetailStore.sol:RetailStore",
        "label": "fealtyScore",
        "offset": 0,
        "slot": "3",
        "type": "t_mapping(t_uint256,t_array(t_uint256)8_storage)"
      },
      {
        "astId": 46,
        "contract": "contracts/RetailStore.sol:RetailStore",
        "label": "customers",
        "offset": 0,
        "slot": "4",
        "type": "t_array(t_struct(Customer)32_storage)dyn_storage"
      },
      {
        "astId": 49,
        "contract": "contracts/RetailStore.sol:RetailStore",
        "label": "totalP",
        "offset": 0,
        "slot": "5",
        "type": "t_uint256"
      },
      {
        "astId": 400,
        "contract": "contracts/RetailStore.sol:RetailStore",
        "label": "val",
        "offset": 0,
        "slot": "6",
        "type": "t_uint256"
      }
    ],
    "types": {
      "t_array(t_struct(CartItem)25_storage)dyn_storage": {
        "base": "t_struct(CartItem)25_storage",
        "encoding": "dynamic_array",
        "label": "struct RetailStore.CartItem[]",
        "numberOfBytes": "32"
      },
      "t_array(t_struct(Customer)32_storage)dyn_storage": {
        "base": "t_struct(Customer)32_storage",
        "encoding": "dynamic_array",
        "label": "struct RetailStore.Customer[]",
        "numberOfBytes": "32"
      },
      "t_array(t_struct(Product)11_storage)dyn_storage": {
        "base": "t_struct(Product)11_storage",
        "encoding": "dynamic_array",
        "label": "struct RetailStore.Product[]",
        "numberOfBytes": "32"
      },
      "t_array(t_uint256)8_storage": {
        "base": "t_uint256",
        "encoding": "inplace",
        "label": "uint256[8]",
        "numberOfBytes": "256"
      },
      "t_array(t_uint256)dyn_storage": {
        "base": "t_uint256",
        "encoding": "dynamic_array",
        "label": "uint256[]",
        "numberOfBytes": "32"
      },
      "t_mapping(t_uint256,t_array(t_uint256)8_storage)": {
        "encoding": "mapping",
        "key": "t_uint256",
        "label": "mapping(uint256 => uint256[8])",
        "numberOfBytes": "32",
        "value": "t_array(t_uint256)8_storage"
      },
      "t_string_storage": {
        "encoding": "bytes",
        "label": "string",
        "numberOfBytes": "32"
      },
      "t_struct(CartItem)25_storage": {
        "encoding": "inplace",
        "label": "struct RetailStore.CartItem",
        "members": [
          {
            "astId": 20,
            "contract": "contracts/RetailStore.sol:RetailStore",
            "label": "prodId",
            "offset": 0,
            "slot": "0",
            "type": "t_uint256"
          },
          {
            "astId": 22,
            "contract": "contracts/RetailStore.sol:RetailStore",
            "label": "count",
            "offset": 0,
            "slot": "1",
            "type": "t_uint256"
          },
          {
            "astId": 24,
            "contract": "contracts/RetailStore.sol:RetailStore",
            "label": "price",
            "offset": 0,
            "slot": "2",
            "type": "t_uint256"
          }
        ],
        "numberOfBytes": "96"
      },
      "t_struct(Customer)32_storage": {
        "encoding": "inplace",
        "label": "struct RetailStore.Customer",
        "members": [
          {
            "astId": 27,
            "contract": "contracts/RetailStore.sol:RetailStore",
            "label": "id",
            "offset": 0,
            "slot": "0",
            "type": "t_uint256"
          },
          {
            "astId": 29,
            "contract": "contracts/RetailStore.sol:RetailStore",
            "label": "name",
            "offset": 0,
            "slot": "1",
            "type": "t_string_storage"
          },
          {
            "astId": 31,
            "contract": "contracts/RetailStore.sol:RetailStore",
            "label": "PhNo",
            "offset": 0,
            "slot": "2",
            "type": "t_uint256"
          }
        ],
        "numberOfBytes": "96"
      },
      "t_struct(Product)11_storage": {
        "encoding": "inplace",
        "label": "struct RetailStore.Product",
        "members": [
          {
            "astId": 4,
            "contract": "contracts/RetailStore.sol:RetailStore",
            "label": "id",
            "offset": 0,
            "slot": "0",
            "type": "t_uint256"
          },
          {
            "astId": 6,
            "contract": "contracts/RetailStore.sol:RetailStore",
            "label": "brand",
            "offset": 0,
            "slot": "1",
            "type": "t_string_storage"
          },
          {
            "astId": 8,
            "contract": "contracts/RetailStore.sol:RetailStore",
            "label": "productType",
            "offset": 0,
            "slot": "2",
            "type": "t_string_storage"
          },
          {
            "astId": 10,
            "contract": "contracts/RetailStore.sol:RetailStore",
            "label": "price",
            "offset": 0,
            "slot": "3",
            "type": "t_uint256"
          }
        ],
        "numberOfBytes": "128"
      },
      "t_uint256": {
        "encoding": "inplace",
        "label": "uint256",
        "numberOfBytes": "32"
      }
    }
  }
}